{
  "_format": "hh-sol-artifact-1",
  "contractName": "ChainFood",
  "sourceName": "contracts/ChainFood.sol",
  "abi": [
    {
      "inputs": [],
      "stateMutability": "nonpayable",
      "type": "constructor"
    },
    {
      "anonymous": false,
      "inputs": [
        {
          "indexed": true,
          "internalType": "address",
          "name": "owner",
          "type": "address"
        },
        {
          "indexed": true,
          "internalType": "address",
          "name": "spender",
          "type": "address"
        },
        {
          "indexed": false,
          "internalType": "uint256",
          "name": "value",
          "type": "uint256"
        }
      ],
      "name": "Approval",
      "type": "event"
    },
    {
      "anonymous": false,
      "inputs": [
        {
          "indexed": false,
          "internalType": "uint256",
          "name": "id",
          "type": "uint256"
        }
      ],
      "name": "Deleted",
      "type": "event"
    },
    {
      "anonymous": false,
      "inputs": [
        {
          "indexed": true,
          "internalType": "uint256",
          "name": "id",
          "type": "uint256"
        },
        {
          "indexed": false,
          "internalType": "uint32",
          "name": "dislikeAmount",
          "type": "uint32"
        }
      ],
      "name": "Disliked",
      "type": "event"
    },
    {
      "anonymous": false,
      "inputs": [
        {
          "indexed": true,
          "internalType": "uint256",
          "name": "id",
          "type": "uint256"
        },
        {
          "indexed": true,
          "internalType": "address",
          "name": "owner",
          "type": "address"
        },
        {
          "indexed": false,
          "internalType": "uint256",
          "name": "price",
          "type": "uint256"
        },
        {
          "indexed": false,
          "internalType": "uint256",
          "name": "token",
          "type": "uint256"
        }
      ],
      "name": "FoodCreated",
      "type": "event"
    },
    {
      "anonymous": false,
      "inputs": [
        {
          "indexed": true,
          "internalType": "uint256",
          "name": "id",
          "type": "uint256"
        },
        {
          "indexed": false,
          "internalType": "uint32",
          "name": "likeAmount",
          "type": "uint32"
        }
      ],
      "name": "Liked",
      "type": "event"
    },
    {
      "anonymous": false,
      "inputs": [
        {
          "indexed": false,
          "internalType": "uint256",
          "name": "id",
          "type": "uint256"
        },
        {
          "indexed": true,
          "internalType": "address",
          "name": "buyer",
          "type": "address"
        },
        {
          "indexed": false,
          "internalType": "uint256",
          "name": "orderAmount",
          "type": "uint256"
        },
        {
          "indexed": false,
          "internalType": "uint256",
          "name": "token",
          "type": "uint256"
        }
      ],
      "name": "Ordered",
      "type": "event"
    },
    {
      "anonymous": false,
      "inputs": [
        {
          "indexed": true,
          "internalType": "address",
          "name": "from",
          "type": "address"
        },
        {
          "indexed": true,
          "internalType": "address",
          "name": "to",
          "type": "address"
        },
        {
          "indexed": false,
          "internalType": "uint256",
          "name": "value",
          "type": "uint256"
        }
      ],
      "name": "Transfer",
      "type": "event"
    },
    {
      "anonymous": false,
      "inputs": [
        {
          "indexed": false,
          "internalType": "uint256",
          "name": "id",
          "type": "uint256"
        },
        {
          "indexed": false,
          "internalType": "uint256",
          "name": "amount",
          "type": "uint256"
        }
      ],
      "name": "Withdrawn",
      "type": "event"
    },
    {
      "inputs": [],
      "name": "admin",
      "outputs": [
        {
          "internalType": "address",
          "name": "",
          "type": "address"
        }
      ],
      "stateMutability": "view",
      "type": "function"
    },
    {
      "inputs": [
        {
          "internalType": "address",
          "name": "",
          "type": "address"
        }
      ],
      "name": "adsNumber",
      "outputs": [
        {
          "internalType": "uint256",
          "name": "",
          "type": "uint256"
        }
      ],
      "stateMutability": "view",
      "type": "function"
    },
    {
      "inputs": [
        {
          "internalType": "uint256",
          "name": "",
          "type": "uint256"
        }
      ],
      "name": "allfoods",
      "outputs": [
        {
          "internalType": "uint256",
          "name": "id",
          "type": "uint256"
        },
        {
          "internalType": "address",
          "name": "owner",
          "type": "address"
        },
        {
          "internalType": "string",
          "name": "title",
          "type": "string"
        },
        {
          "internalType": "uint256",
          "name": "price",
          "type": "uint256"
        },
        {
          "internalType": "bool",
          "name": "isSold",
          "type": "bool"
        },
        {
          "internalType": "uint32",
          "name": "like",
          "type": "uint32"
        },
        {
          "internalType": "uint32",
          "name": "dislike",
          "type": "uint32"
        },
        {
          "internalType": "uint256",
          "name": "token",
          "type": "uint256"
        }
      ],
      "stateMutability": "view",
      "type": "function"
    },
    {
      "inputs": [
        {
          "internalType": "address",
          "name": "owner",
          "type": "address"
        },
        {
          "internalType": "address",
          "name": "spender",
          "type": "address"
        }
      ],
      "name": "allowance",
      "outputs": [
        {
          "internalType": "uint256",
          "name": "",
          "type": "uint256"
        }
      ],
      "stateMutability": "view",
      "type": "function"
    },
    {
      "inputs": [
        {
          "internalType": "address",
          "name": "spender",
          "type": "address"
        },
        {
          "internalType": "uint256",
          "name": "amount",
          "type": "uint256"
        }
      ],
      "name": "approve",
      "outputs": [
        {
          "internalType": "bool",
          "name": "",
          "type": "bool"
        }
      ],
      "stateMutability": "nonpayable",
      "type": "function"
    },
    {
      "inputs": [
        {
          "internalType": "address",
          "name": "account",
          "type": "address"
        }
      ],
      "name": "balanceOf",
      "outputs": [
        {
          "internalType": "uint256",
          "name": "",
          "type": "uint256"
        }
      ],
      "stateMutability": "view",
      "type": "function"
    },
    {
      "inputs": [
        {
          "internalType": "string",
          "name": "_title",
          "type": "string"
        },
        {
          "internalType": "uint256",
          "name": "_price",
          "type": "uint256"
        }
      ],
      "name": "create",
      "outputs": [],
      "stateMutability": "nonpayable",
      "type": "function"
    },
    {
      "inputs": [],
      "name": "decimals",
      "outputs": [
        {
          "internalType": "uint8",
          "name": "",
          "type": "uint8"
        }
      ],
      "stateMutability": "view",
      "type": "function"
    },
    {
      "inputs": [
        {
          "internalType": "address",
          "name": "spender",
          "type": "address"
        },
        {
          "internalType": "uint256",
          "name": "subtractedValue",
          "type": "uint256"
        }
      ],
      "name": "decreaseAllowance",
      "outputs": [
        {
          "internalType": "bool",
          "name": "",
          "type": "bool"
        }
      ],
      "stateMutability": "nonpayable",
      "type": "function"
    },
    {
      "inputs": [
        {
          "internalType": "uint256",
          "name": "_id",
          "type": "uint256"
        }
      ],
      "name": "deleteFood",
      "outputs": [],
      "stateMutability": "nonpayable",
      "type": "function"
    },
    {
      "inputs": [
        {
          "internalType": "uint256",
          "name": "_id",
          "type": "uint256"
        }
      ],
      "name": "dislike",
      "outputs": [],
      "stateMutability": "nonpayable",
      "type": "function"
    },
    {
      "inputs": [
        {
          "internalType": "uint256",
          "name": "",
          "type": "uint256"
        },
        {
          "internalType": "address",
          "name": "",
          "type": "address"
        }
      ],
      "name": "dislikeAmount",
      "outputs": [
        {
          "internalType": "uint256",
          "name": "",
          "type": "uint256"
        }
      ],
      "stateMutability": "view",
      "type": "function"
    },
    {
      "inputs": [
        {
          "internalType": "uint256",
          "name": "",
          "type": "uint256"
        }
      ],
      "name": "foods",
      "outputs": [
        {
          "internalType": "uint256",
          "name": "id",
          "type": "uint256"
        },
        {
          "internalType": "address",
          "name": "owner",
          "type": "address"
        },
        {
          "internalType": "string",
          "name": "title",
          "type": "string"
        },
        {
          "internalType": "uint256",
          "name": "price",
          "type": "uint256"
        },
        {
          "internalType": "bool",
          "name": "isSold",
          "type": "bool"
        },
        {
          "internalType": "uint32",
          "name": "like",
          "type": "uint32"
        },
        {
          "internalType": "uint32",
          "name": "dislike",
          "type": "uint32"
        },
        {
          "internalType": "uint256",
          "name": "token",
          "type": "uint256"
        }
      ],
      "stateMutability": "view",
      "type": "function"
    },
    {
      "inputs": [
        {
          "internalType": "uint256",
          "name": "_id",
          "type": "uint256"
        }
      ],
      "name": "getFood",
      "outputs": [
        {
          "components": [
            {
              "internalType": "uint256",
              "name": "id",
              "type": "uint256"
            },
            {
              "internalType": "address",
              "name": "owner",
              "type": "address"
            },
            {
              "internalType": "string",
              "name": "title",
              "type": "string"
            },
            {
              "internalType": "uint256",
              "name": "price",
              "type": "uint256"
            },
            {
              "internalType": "bool",
              "name": "isSold",
              "type": "bool"
            },
            {
              "internalType": "uint32",
              "name": "like",
              "type": "uint32"
            },
            {
              "internalType": "uint32",
              "name": "dislike",
              "type": "uint32"
            },
            {
              "internalType": "uint256",
              "name": "token",
              "type": "uint256"
            }
          ],
          "internalType": "struct ChainFood.Food",
          "name": "",
          "type": "tuple"
        }
      ],
      "stateMutability": "view",
      "type": "function"
    },
    {
      "inputs": [],
      "name": "getLastGivenId",
      "outputs": [
        {
          "internalType": "uint256",
          "name": "",
          "type": "uint256"
        }
      ],
      "stateMutability": "view",
      "type": "function"
    },
    {
      "inputs": [
        {
          "internalType": "uint256",
          "name": "_id",
          "type": "uint256"
        }
      ],
      "name": "getPrice",
      "outputs": [
        {
          "internalType": "uint256",
          "name": "",
          "type": "uint256"
        }
      ],
      "stateMutability": "view",
      "type": "function"
    },
    {
      "inputs": [],
      "name": "id",
      "outputs": [
        {
          "internalType": "uint256",
          "name": "",
          "type": "uint256"
        }
      ],
      "stateMutability": "view",
      "type": "function"
    },
    {
      "inputs": [
        {
          "internalType": "address",
          "name": "spender",
          "type": "address"
        },
        {
          "internalType": "uint256",
          "name": "addedValue",
          "type": "uint256"
        }
      ],
      "name": "increaseAllowance",
      "outputs": [
        {
          "internalType": "bool",
          "name": "",
          "type": "bool"
        }
      ],
      "stateMutability": "nonpayable",
      "type": "function"
    },
    {
      "inputs": [
        {
          "internalType": "uint256",
          "name": "",
          "type": "uint256"
        },
        {
          "internalType": "address",
          "name": "",
          "type": "address"
        }
      ],
      "name": "isOrdered",
      "outputs": [
        {
          "internalType": "bool",
          "name": "",
          "type": "bool"
        }
      ],
      "stateMutability": "view",
      "type": "function"
    },
    {
      "inputs": [
        {
          "internalType": "uint256",
          "name": "_id",
          "type": "uint256"
        }
      ],
      "name": "like",
      "outputs": [],
      "stateMutability": "nonpayable",
      "type": "function"
    },
    {
      "inputs": [
        {
          "internalType": "uint256",
          "name": "",
          "type": "uint256"
        },
        {
          "internalType": "address",
          "name": "",
          "type": "address"
        }
      ],
      "name": "likeAmount",
      "outputs": [
        {
          "internalType": "uint256",
          "name": "",
          "type": "uint256"
        }
      ],
      "stateMutability": "view",
      "type": "function"
    },
    {
      "inputs": [],
      "name": "name",
      "outputs": [
        {
          "internalType": "string",
          "name": "",
          "type": "string"
        }
      ],
      "stateMutability": "view",
      "type": "function"
    },
    {
      "inputs": [
        {
          "internalType": "uint256",
          "name": "",
          "type": "uint256"
        },
        {
          "internalType": "address",
          "name": "",
          "type": "address"
        }
      ],
      "name": "orderAmount",
      "outputs": [
        {
          "internalType": "uint256",
          "name": "",
          "type": "uint256"
        }
      ],
      "stateMutability": "view",
      "type": "function"
    },
    {
      "inputs": [
        {
          "internalType": "uint256",
          "name": "_id",
          "type": "uint256"
        }
      ],
      "name": "orderFood",
      "outputs": [],
      "stateMutability": "payable",
      "type": "function"
    },
    {
      "inputs": [
        {
          "internalType": "uint256",
          "name": "",
          "type": "uint256"
        },
        {
          "internalType": "address",
          "name": "",
          "type": "address"
        }
      ],
      "name": "orderTime",
      "outputs": [
        {
          "internalType": "uint256",
          "name": "",
          "type": "uint256"
        }
      ],
      "stateMutability": "view",
      "type": "function"
    },
    {
      "inputs": [],
      "name": "symbol",
      "outputs": [
        {
          "internalType": "string",
          "name": "",
          "type": "string"
        }
      ],
      "stateMutability": "view",
      "type": "function"
    },
    {
      "inputs": [],
      "name": "totalSupply",
      "outputs": [
        {
          "internalType": "uint256",
          "name": "",
          "type": "uint256"
        }
      ],
      "stateMutability": "view",
      "type": "function"
    },
    {
      "inputs": [
        {
          "internalType": "address",
          "name": "to",
          "type": "address"
        },
        {
          "internalType": "uint256",
          "name": "amount",
          "type": "uint256"
        }
      ],
      "name": "transfer",
      "outputs": [
        {
          "internalType": "bool",
          "name": "",
          "type": "bool"
        }
      ],
      "stateMutability": "nonpayable",
      "type": "function"
    },
    {
      "inputs": [
        {
          "internalType": "address",
          "name": "from",
          "type": "address"
        },
        {
          "internalType": "address",
          "name": "to",
          "type": "address"
        },
        {
          "internalType": "uint256",
          "name": "amount",
          "type": "uint256"
        }
      ],
      "name": "transferFrom",
      "outputs": [
        {
          "internalType": "bool",
          "name": "",
          "type": "bool"
        }
      ],
      "stateMutability": "nonpayable",
      "type": "function"
    }
  ],
  "bytecode": "0x60806040523480156200001157600080fd5b506040518060400160405280600a81526020017f436861696e20466f6f64000000000000000000000000000000000000000000008152506040518060400160405280600281526020017f434600000000000000000000000000000000000000000000000000000000000081525081600390816200008f9190620004f8565b508060049081620000a19190620004f8565b505050620000c03369d3c21bcecceda10000006200010760201b60201c565b33600560006101000a81548173ffffffffffffffffffffffffffffffffffffffff021916908373ffffffffffffffffffffffffffffffffffffffff160217905550620006fa565b600073ffffffffffffffffffffffffffffffffffffffff168273ffffffffffffffffffffffffffffffffffffffff160362000179576040517f08c379a0000000000000000000000000000000000000000000000000000000008152600401620001709062000640565b60405180910390fd5b6200018d600083836200027460201b60201c565b8060026000828254620001a1919062000691565b92505081905550806000808473ffffffffffffffffffffffffffffffffffffffff1673ffffffffffffffffffffffffffffffffffffffff168152602001908152602001600020600082825401925050819055508173ffffffffffffffffffffffffffffffffffffffff16600073ffffffffffffffffffffffffffffffffffffffff167fddf252ad1be2c89b69c2b068fc378daa952ba7f163c4a11628f55a4df523b3ef83604051620002549190620006dd565b60405180910390a362000270600083836200027960201b60201c565b5050565b505050565b505050565b600081519050919050565b7f4e487b7100000000000000000000000000000000000000000000000000000000600052604160045260246000fd5b7f4e487b7100000000000000000000000000000000000000000000000000000000600052602260045260246000fd5b600060028204905060018216806200030057607f821691505b602082108103620003165762000315620002b8565b5b50919050565b60008190508160005260206000209050919050565b60006020601f8301049050919050565b600082821b905092915050565b600060088302620003807fffffffffffffffffffffffffffffffffffffffffffffffffffffffffffffffff8262000341565b6200038c868362000341565b95508019841693508086168417925050509392505050565b6000819050919050565b6000819050919050565b6000620003d9620003d3620003cd84620003a4565b620003ae565b620003a4565b9050919050565b6000819050919050565b620003f583620003b8565b6200040d6200040482620003e0565b8484546200034e565b825550505050565b600090565b6200042462000415565b62000431818484620003ea565b505050565b5b8181101562000459576200044d6000826200041a565b60018101905062000437565b5050565b601f821115620004a85762000472816200031c565b6200047d8462000331565b810160208510156200048d578190505b620004a56200049c8562000331565b83018262000436565b50505b505050565b600082821c905092915050565b6000620004cd60001984600802620004ad565b1980831691505092915050565b6000620004e88383620004ba565b9150826002028217905092915050565b62000503826200027e565b67ffffffffffffffff8111156200051f576200051e62000289565b5b6200052b8254620002e7565b620005388282856200045d565b600060209050601f8311600181146200057057600084156200055b578287015190505b620005678582620004da565b865550620005d7565b601f19841662000580866200031c565b60005b82811015620005aa5784890151825560018201915060208501945060208101905062000583565b86831015620005ca5784890151620005c6601f891682620004ba565b8355505b6001600288020188555050505b505050505050565b600082825260208201905092915050565b7f45524332303a206d696e7420746f20746865207a65726f206164647265737300600082015250565b600062000628601f83620005df565b91506200063582620005f0565b602082019050919050565b600060208201905081810360008301526200065b8162000619565b9050919050565b7f4e487b7100000000000000000000000000000000000000000000000000000000600052601160045260246000fd5b60006200069e82620003a4565b9150620006ab83620003a4565b9250828201905080821115620006c657620006c562000662565b5b92915050565b620006d781620003a4565b82525050565b6000602082019050620006f46000830184620006cc565b92915050565b6141d7806200070a6000396000f3fe6080604052600436106101c25760003560e01c806395d89b41116100f7578063c7e4df8a11610095578063e82935da11610064578063e82935da14610713578063ed1715f91461073c578063f6b5b20314610767578063f851a440146107a4576101c2565b8063c7e4df8a14610633578063d198b65014610670578063dd62ed3e14610699578063e7572230146106d6576101c2565b8063aaf55635116100d1578063aaf556351461054a578063af640d0f14610587578063b4e2d011146105b2578063c46aebfb146105ef576101c2565b806395d89b41146104a5578063a457c2d7146104d0578063a9059cbb1461050d576101c2565b8063304f6bef1161016457806346a022f71161013e57806346a022f7146103d957806346f81a8714610416578063618f8bbb1461043f57806370a0823114610468576101c2565b8063304f6bef14610355578063313ce56714610371578063395093511461039c576101c2565b806318160ddd116101a057806318160ddd146102735780631e4de8721461029e57806323b872dd146102db57806329a7b94f14610318576101c2565b806306fdde03146101c7578063095ea7b3146101f257806314d3f10e1461022f575b600080fd5b3480156101d357600080fd5b506101dc6107cf565b6040516101e99190612c41565b60405180910390f35b3480156101fe57600080fd5b5061021960048036038101906102149190612d0b565b610861565b6040516102269190612d66565b60405180910390f35b34801561023b57600080fd5b5061025660048036038101906102519190612d81565b610884565b60405161026a989796959493929190612deb565b60405180910390f35b34801561027f57600080fd5b506102886109a1565b6040516102959190612e70565b60405180910390f35b3480156102aa57600080fd5b506102c560048036038101906102c09190612d81565b6109ab565b6040516102d29190612fc1565b60405180910390f35b3480156102e757600080fd5b5061030260048036038101906102fd9190612fe3565b610b4c565b60405161030f9190612d66565b60405180910390f35b34801561032457600080fd5b5061033f600480360381019061033a9190613036565b610b7b565b60405161034c9190612e70565b60405180910390f35b61036f600480360381019061036a9190612d81565b610ba0565b005b34801561037d57600080fd5b50610386610ff5565b6040516103939190613092565b60405180910390f35b3480156103a857600080fd5b506103c360048036038101906103be9190612d0b565b610ffe565b6040516103d09190612d66565b60405180910390f35b3480156103e557600080fd5b5061040060048036038101906103fb9190613036565b611035565b60405161040d9190612e70565b60405180910390f35b34801561042257600080fd5b5061043d600480360381019061043891906131e2565b61105a565b005b34801561044b57600080fd5b5061046660048036038101906104619190612d81565b6114c5565b005b34801561047457600080fd5b5061048f600480360381019061048a919061323e565b6117f6565b60405161049c9190612e70565b60405180910390f35b3480156104b157600080fd5b506104ba61183e565b6040516104c79190612c41565b60405180910390f35b3480156104dc57600080fd5b506104f760048036038101906104f29190612d0b565b6118d0565b6040516105049190612d66565b60405180910390f35b34801561051957600080fd5b50610534600480360381019061052f9190612d0b565b611947565b6040516105419190612d66565b60405180910390f35b34801561055657600080fd5b50610571600480360381019061056c9190613036565b61196a565b60405161057e9190612e70565b60405180910390f35b34801561059357600080fd5b5061059c61198f565b6040516105a99190612e70565b60405180910390f35b3480156105be57600080fd5b506105d960048036038101906105d4919061323e565b611995565b6040516105e69190612e70565b60405180910390f35b3480156105fb57600080fd5b5061061660048036038101906106119190612d81565b6119ad565b60405161062a989796959493929190612deb565b60405180910390f35b34801561063f57600080fd5b5061065a60048036038101906106559190613036565b611ada565b6040516106679190612d66565b60405180910390f35b34801561067c57600080fd5b5061069760048036038101906106929190612d81565b611b09565b005b3480156106a557600080fd5b506106c060048036038101906106bb919061326b565b611e97565b6040516106cd9190612e70565b60405180910390f35b3480156106e257600080fd5b506106fd60048036038101906106f89190612d81565b611f1e565b60405161070a9190612e70565b60405180910390f35b34801561071f57600080fd5b5061073a60048036038101906107359190612d81565b6120bc565b005b34801561074857600080fd5b506107516123ec565b60405161075e9190612e70565b60405180910390f35b34801561077357600080fd5b5061078e60048036038101906107899190613036565b6123f6565b60405161079b9190612e70565b60405180910390f35b3480156107b057600080fd5b506107b961241b565b6040516107c691906132ab565b60405180910390f35b6060600380546107de906132f5565b80601f016020809104026020016040519081016040528092919081815260200182805461080a906132f5565b80156108575780601f1061082c57610100808354040283529160200191610857565b820191906000526020600020905b81548152906001019060200180831161083a57829003601f168201915b5050505050905090565b60008061086c612441565b9050610879818585612449565b600191505092915050565b60086020528060005260406000206000915090508060000154908060010160009054906101000a900473ffffffffffffffffffffffffffffffffffffffff16908060020180546108d3906132f5565b80601f01602080910402602001604051908101604052809291908181526020018280546108ff906132f5565b801561094c5780601f106109215761010080835404028352916020019161094c565b820191906000526020600020905b81548152906001019060200180831161092f57829003601f168201915b5050505050908060030154908060040160009054906101000a900460ff16908060040160019054906101000a900463ffffffff16908060040160059054906101000a900463ffffffff16908060050154905088565b6000600254905090565b6109b3612aeb565b60006008600084815260200190815260200160002060405180610100016040529081600082015481526020016001820160009054906101000a900473ffffffffffffffffffffffffffffffffffffffff1673ffffffffffffffffffffffffffffffffffffffff1673ffffffffffffffffffffffffffffffffffffffff168152602001600282018054610a44906132f5565b80601f0160208091040260200160405190810160405280929190818152602001828054610a70906132f5565b8015610abd5780601f10610a9257610100808354040283529160200191610abd565b820191906000526020600020905b815481529060010190602001808311610aa057829003601f168201915b50505050508152602001600382015481526020016004820160009054906101000a900460ff161515151581526020016004820160019054906101000a900463ffffffff1663ffffffff1663ffffffff1681526020016004820160059054906101000a900463ffffffff1663ffffffff1663ffffffff168152602001600582015481525050905080915050919050565b600080610b57612441565b9050610b64858285612612565b610b6f85858561269e565b60019150509392505050565b6009602052816000526040600020602052806000526040600020600091509150505481565b600060086000838152602001908152602001600020905081816000015414610bfd576040517f08c379a0000000000000000000000000000000000000000000000000000000008152600401610bf490613372565b60405180910390fd5b80600301543414610c43576040517f08c379a0000000000000000000000000000000000000000000000000000000008152600401610c3a906133de565b60405180910390fd5b60008160010160009054906101000a900473ffffffffffffffffffffffffffffffffffffffff1673ffffffffffffffffffffffffffffffffffffffff1634604051610c8d9061342f565b60006040518083038185875af1925050503d8060008114610cca576040519150601f19603f3d011682016040523d82523d6000602084013e610ccf565b606091505b5050905080610d13576040517f08c379a0000000000000000000000000000000000000000000000000000000008152600401610d0a90613490565b60405180910390fd5b600082600501541115610d7957662386f26fc10000826005016000828254610d3b91906134df565b92505081905550610d788260010160009054906101000a900473ffffffffffffffffffffffffffffffffffffffff1633662386f26fc1000061269e565b5b6000826005015403610e01576001600e60008460010160009054906101000a900473ffffffffffffffffffffffffffffffffffffffff1673ffffffffffffffffffffffffffffffffffffffff1673ffffffffffffffffffffffffffffffffffffffff1681526020019081526020016000206000828254610df991906134df565b925050819055505b60018260040160006101000a81548160ff0219169083151502179055506001600a600085815260200190815260200160002060003373ffffffffffffffffffffffffffffffffffffffff1673ffffffffffffffffffffffffffffffffffffffff16815260200190815260200160002060006101000a81548160ff021916908315150217905550426009600085815260200190815260200160002060003373ffffffffffffffffffffffffffffffffffffffff1673ffffffffffffffffffffffffffffffffffffffff168152602001908152602001600020819055506001600b600085815260200190815260200160002060003373ffffffffffffffffffffffffffffffffffffffff1673ffffffffffffffffffffffffffffffffffffffff1681526020019081526020016000206000828254610f3d9190613513565b925050819055506000600b600085815260200190815260200160002060003373ffffffffffffffffffffffffffffffffffffffff1673ffffffffffffffffffffffffffffffffffffffff1681526020019081526020016000205490503373ffffffffffffffffffffffffffffffffffffffff167f8f7a71ae992759f1984642fff664f3bd1115e6a426de3f512bcf93f9b2eb24cb85838660050154604051610fe793929190613547565b60405180910390a250505050565b60006012905090565b600080611009612441565b905061102a81858561101b8589611e97565b6110259190613513565b612449565b600191505092915050565b600b602052816000526040600020602052806000526040600020600091509150505481565b6005600e60003373ffffffffffffffffffffffffffffffffffffffff1673ffffffffffffffffffffffffffffffffffffffff1681526020019081526020016000205411156110dd576040517f08c379a00000000000000000000000000000000000000000000000000000000081526004016110d4906135ca565b60405180910390fd5b6001600660008282546110f09190613513565b9250508190555060405180610100016040528060065481526020013373ffffffffffffffffffffffffffffffffffffffff168152602001838152602001828152602001600015158152602001600063ffffffff168152602001600063ffffffff168152602001678ac7230489e800008152506008600060065481526020019081526020016000206000820151816000015560208201518160010160006101000a81548173ffffffffffffffffffffffffffffffffffffffff021916908373ffffffffffffffffffffffffffffffffffffffff16021790555060408201518160020190816111dd9190613796565b506060820151816003015560808201518160040160006101000a81548160ff02191690831515021790555060a08201518160040160016101000a81548163ffffffff021916908363ffffffff16021790555060c08201518160040160056101000a81548163ffffffff021916908363ffffffff16021790555060e0820151816005015590505060076008600060065481526020019081526020016000209080600181540180825580915050600190039060005260206000209060060201600090919091909150600082015481600001556001820160009054906101000a900473ffffffffffffffffffffffffffffffffffffffff168160010160006101000a81548173ffffffffffffffffffffffffffffffffffffffff021916908373ffffffffffffffffffffffffffffffffffffffff16021790555060028201816002019081611328919061387e565b50600382015481600301556004820160009054906101000a900460ff168160040160006101000a81548160ff0219169083151502179055506004820160019054906101000a900463ffffffff168160040160016101000a81548163ffffffff021916908363ffffffff1602179055506004820160059054906101000a900463ffffffff168160040160056101000a81548163ffffffff021916908363ffffffff1602179055506005820154816005015550506001600e60003373ffffffffffffffffffffffffffffffffffffffff1673ffffffffffffffffffffffffffffffffffffffff168152602001908152602001600020600082825461142a9190613513565b92505081905550611466600560009054906101000a900473ffffffffffffffffffffffffffffffffffffffff1633678ac7230489e8000061269e565b3373ffffffffffffffffffffffffffffffffffffffff166006547fc39de6c379123f90a5a297f9ee1fb31623619f1579cbb93a2d9a369369a37ba883678ac7230489e800006040516114b99291906139a1565b60405180910390a35050565b6000600860008381526020019081526020016000209050600a600083815260200190815260200160002060003373ffffffffffffffffffffffffffffffffffffffff1673ffffffffffffffffffffffffffffffffffffffff16815260200190815260200160002060009054906101000a900460ff16611579576040517f08c379a000000000000000000000000000000000000000000000000000000000815260040161157090613a16565b60405180910390fd5b42620d2f006009600085815260200190815260200160002060003373ffffffffffffffffffffffffffffffffffffffff1673ffffffffffffffffffffffffffffffffffffffff168152602001908152602001600020546115d99190613513565b101561161a576040517f08c379a000000000000000000000000000000000000000000000000000000000815260040161161190613a82565b60405180910390fd5b600d600083815260200190815260200160002060003373ffffffffffffffffffffffffffffffffffffffff1673ffffffffffffffffffffffffffffffffffffffff16815260200190815260200160002054600b600084815260200190815260200160002060003373ffffffffffffffffffffffffffffffffffffffff1673ffffffffffffffffffffffffffffffffffffffff16815260200190815260200160002054116116fc576040517f08c379a00000000000000000000000000000000000000000000000000000000081526004016116f390613aee565b60405180910390fd5b6001600d600084815260200190815260200160002060003373ffffffffffffffffffffffffffffffffffffffff1673ffffffffffffffffffffffffffffffffffffffff168152602001908152602001600020600082825461175d9190613513565b9250508190555060018160040160058282829054906101000a900463ffffffff166117889190613b0e565b92506101000a81548163ffffffff021916908363ffffffff160217905550817f4c093a7e1f67359e4f44351417152dc7178e6e86b412bb2a62784b80bdca69268260040160059054906101000a900463ffffffff166040516117ea9190613b46565b60405180910390a25050565b60008060008373ffffffffffffffffffffffffffffffffffffffff1673ffffffffffffffffffffffffffffffffffffffff168152602001908152602001600020549050919050565b60606004805461184d906132f5565b80601f0160208091040260200160405190810160405280929190818152602001828054611879906132f5565b80156118c65780601f1061189b576101008083540402835291602001916118c6565b820191906000526020600020905b8154815290600101906020018083116118a957829003601f168201915b5050505050905090565b6000806118db612441565b905060006118e98286611e97565b90508381101561192e576040517f08c379a000000000000000000000000000000000000000000000000000000000815260040161192590613bd3565b60405180910390fd5b61193b8286868403612449565b60019250505092915050565b600080611952612441565b905061195f81858561269e565b600191505092915050565b600d602052816000526040600020602052806000526040600020600091509150505481565b60065481565b600e6020528060005260406000206000915090505481565b600781815481106119bd57600080fd5b90600052602060002090600602016000915090508060000154908060010160009054906101000a900473ffffffffffffffffffffffffffffffffffffffff1690806002018054611a0c906132f5565b80601f0160208091040260200160405190810160405280929190818152602001828054611a38906132f5565b8015611a855780601f10611a5a57610100808354040283529160200191611a85565b820191906000526020600020905b815481529060010190602001808311611a6857829003601f168201915b5050505050908060030154908060040160009054906101000a900460ff16908060040160019054906101000a900463ffffffff16908060040160059054906101000a900463ffffffff16908060050154905088565b600a6020528160005260406000206020528060005260406000206000915091509054906101000a900460ff1681565b60006008600083815260200190815260200160002060405180610100016040529081600082015481526020016001820160009054906101000a900473ffffffffffffffffffffffffffffffffffffffff1673ffffffffffffffffffffffffffffffffffffffff1673ffffffffffffffffffffffffffffffffffffffff168152602001600282018054611b9a906132f5565b80601f0160208091040260200160405190810160405280929190818152602001828054611bc6906132f5565b8015611c135780601f10611be857610100808354040283529160200191611c13565b820191906000526020600020905b815481529060010190602001808311611bf657829003601f168201915b50505050508152602001600382015481526020016004820160009054906101000a900460ff161515151581526020016004820160019054906101000a900463ffffffff1663ffffffff1663ffffffff1681526020016004820160059054906101000a900463ffffffff1663ffffffff1663ffffffff16815260200160058201548152505090503373ffffffffffffffffffffffffffffffffffffffff16816020015173ffffffffffffffffffffffffffffffffffffffff1614611d0b576040517f08c379a0000000000000000000000000000000000000000000000000000000008152600401611d0290613c3f565b60405180910390fd5b806080015115611d50576040517f08c379a0000000000000000000000000000000000000000000000000000000008152600401611d4790613cab565b60405180910390fd5b611d5e338260e00151612914565b600860008381526020019081526020016000206000808201600090556001820160006101000a81549073ffffffffffffffffffffffffffffffffffffffff0219169055600282016000611db19190612b54565b60038201600090556004820160006101000a81549060ff02191690556004820160016101000a81549063ffffffff02191690556004820160056101000a81549063ffffffff0219169055600582016000905550506001600e60003373ffffffffffffffffffffffffffffffffffffffff1673ffffffffffffffffffffffffffffffffffffffff1681526020019081526020016000206000828254611e5591906134df565b925050819055507fa7766fcfa04f2c2359a17c257e899880c30b12f2f4478316f8aaff232f1c63dd82604051611e8b9190612e70565b60405180910390a15050565b6000600160008473ffffffffffffffffffffffffffffffffffffffff1673ffffffffffffffffffffffffffffffffffffffff16815260200190815260200160002060008373ffffffffffffffffffffffffffffffffffffffff1673ffffffffffffffffffffffffffffffffffffffff16815260200190815260200160002054905092915050565b6000806008600084815260200190815260200160002060405180610100016040529081600082015481526020016001820160009054906101000a900473ffffffffffffffffffffffffffffffffffffffff1673ffffffffffffffffffffffffffffffffffffffff1673ffffffffffffffffffffffffffffffffffffffff168152602001600282018054611fb0906132f5565b80601f0160208091040260200160405190810160405280929190818152602001828054611fdc906132f5565b80156120295780601f10611ffe57610100808354040283529160200191612029565b820191906000526020600020905b81548152906001019060200180831161200c57829003601f168201915b50505050508152602001600382015481526020016004820160009054906101000a900460ff161515151581526020016004820160019054906101000a900463ffffffff1663ffffffff1663ffffffff1681526020016004820160059054906101000a900463ffffffff1663ffffffff1663ffffffff16815260200160058201548152505090508060600151915050919050565b6000600860008381526020019081526020016000209050600a600083815260200190815260200160002060003373ffffffffffffffffffffffffffffffffffffffff1673ffffffffffffffffffffffffffffffffffffffff16815260200190815260200160002060009054906101000a900460ff16612170576040517f08c379a000000000000000000000000000000000000000000000000000000000815260040161216790613a16565b60405180910390fd5b42620d2f006009600085815260200190815260200160002060003373ffffffffffffffffffffffffffffffffffffffff1673ffffffffffffffffffffffffffffffffffffffff168152602001908152602001600020546121d09190613513565b11612210576040517f08c379a000000000000000000000000000000000000000000000000000000000815260040161220790613a82565b60405180910390fd5b600c600083815260200190815260200160002060003373ffffffffffffffffffffffffffffffffffffffff1673ffffffffffffffffffffffffffffffffffffffff16815260200190815260200160002054600b600084815260200190815260200160002060003373ffffffffffffffffffffffffffffffffffffffff1673ffffffffffffffffffffffffffffffffffffffff16815260200190815260200160002054116122f2576040517f08c379a00000000000000000000000000000000000000000000000000000000081526004016122e990613d17565b60405180910390fd5b6001600c600084815260200190815260200160002060003373ffffffffffffffffffffffffffffffffffffffff1673ffffffffffffffffffffffffffffffffffffffff16815260200190815260200160002060008282546123539190613513565b9250508190555060018160040160018282829054906101000a900463ffffffff1661237e9190613b0e565b92506101000a81548163ffffffff021916908363ffffffff160217905550817fc9bcc2b42ee0243e9caf9fa217086e8894c7cc1c1ed0f78014d070e1b1fc234c8260040160019054906101000a900463ffffffff166040516123e09190613b46565b60405180910390a25050565b6000600654905090565b600c602052816000526040600020602052806000526040600020600091509150505481565b600560009054906101000a900473ffffffffffffffffffffffffffffffffffffffff1681565b600033905090565b600073ffffffffffffffffffffffffffffffffffffffff168373ffffffffffffffffffffffffffffffffffffffff16036124b8576040517f08c379a00000000000000000000000000000000000000000000000000000000081526004016124af90613da9565b60405180910390fd5b600073ffffffffffffffffffffffffffffffffffffffff168273ffffffffffffffffffffffffffffffffffffffff1603612527576040517f08c379a000000000000000000000000000000000000000000000000000000000815260040161251e90613e3b565b60405180910390fd5b80600160008573ffffffffffffffffffffffffffffffffffffffff1673ffffffffffffffffffffffffffffffffffffffff16815260200190815260200160002060008473ffffffffffffffffffffffffffffffffffffffff1673ffffffffffffffffffffffffffffffffffffffff168152602001908152602001600020819055508173ffffffffffffffffffffffffffffffffffffffff168373ffffffffffffffffffffffffffffffffffffffff167f8c5be1e5ebec7d5bd14f71427d1e84f3dd0314c0f7b2291e5b200ac8c7c3b925836040516126059190612e70565b60405180910390a3505050565b600061261e8484611e97565b90507fffffffffffffffffffffffffffffffffffffffffffffffffffffffffffffffff8114612698578181101561268a576040517f08c379a000000000000000000000000000000000000000000000000000000000815260040161268190613ea7565b60405180910390fd5b6126978484848403612449565b5b50505050565b600073ffffffffffffffffffffffffffffffffffffffff168373ffffffffffffffffffffffffffffffffffffffff160361270d576040517f08c379a000000000000000000000000000000000000000000000000000000000815260040161270490613f39565b60405180910390fd5b600073ffffffffffffffffffffffffffffffffffffffff168273ffffffffffffffffffffffffffffffffffffffff160361277c576040517f08c379a000000000000000000000000000000000000000000000000000000000815260040161277390613fcb565b60405180910390fd5b612787838383612ae1565b60008060008573ffffffffffffffffffffffffffffffffffffffff1673ffffffffffffffffffffffffffffffffffffffff1681526020019081526020016000205490508181101561280d576040517f08c379a00000000000000000000000000000000000000000000000000000000081526004016128049061405d565b60405180910390fd5b8181036000808673ffffffffffffffffffffffffffffffffffffffff1673ffffffffffffffffffffffffffffffffffffffff16815260200190815260200160002081905550816000808573ffffffffffffffffffffffffffffffffffffffff1673ffffffffffffffffffffffffffffffffffffffff168152602001908152602001600020600082825401925050819055508273ffffffffffffffffffffffffffffffffffffffff168473ffffffffffffffffffffffffffffffffffffffff167fddf252ad1be2c89b69c2b068fc378daa952ba7f163c4a11628f55a4df523b3ef846040516128fb9190612e70565b60405180910390a361290e848484612ae6565b50505050565b600073ffffffffffffffffffffffffffffffffffffffff168273ffffffffffffffffffffffffffffffffffffffff1603612983576040517f08c379a000000000000000000000000000000000000000000000000000000000815260040161297a906140ef565b60405180910390fd5b61298f82600083612ae1565b60008060008473ffffffffffffffffffffffffffffffffffffffff1673ffffffffffffffffffffffffffffffffffffffff16815260200190815260200160002054905081811015612a15576040517f08c379a0000000000000000000000000000000000000000000000000000000008152600401612a0c90614181565b60405180910390fd5b8181036000808573ffffffffffffffffffffffffffffffffffffffff1673ffffffffffffffffffffffffffffffffffffffff1681526020019081526020016000208190555081600260008282540392505081905550600073ffffffffffffffffffffffffffffffffffffffff168373ffffffffffffffffffffffffffffffffffffffff167fddf252ad1be2c89b69c2b068fc378daa952ba7f163c4a11628f55a4df523b3ef84604051612ac89190612e70565b60405180910390a3612adc83600084612ae6565b505050565b505050565b505050565b60405180610100016040528060008152602001600073ffffffffffffffffffffffffffffffffffffffff1681526020016060815260200160008152602001600015158152602001600063ffffffff168152602001600063ffffffff168152602001600081525090565b508054612b60906132f5565b6000825580601f10612b725750612b91565b601f016020900490600052602060002090810190612b909190612b94565b5b50565b5b80821115612bad576000816000905550600101612b95565b5090565b600081519050919050565b600082825260208201905092915050565b60005b83811015612beb578082015181840152602081019050612bd0565b60008484015250505050565b6000601f19601f8301169050919050565b6000612c1382612bb1565b612c1d8185612bbc565b9350612c2d818560208601612bcd565b612c3681612bf7565b840191505092915050565b60006020820190508181036000830152612c5b8184612c08565b905092915050565b6000604051905090565b600080fd5b600080fd5b600073ffffffffffffffffffffffffffffffffffffffff82169050919050565b6000612ca282612c77565b9050919050565b612cb281612c97565b8114612cbd57600080fd5b50565b600081359050612ccf81612ca9565b92915050565b6000819050919050565b612ce881612cd5565b8114612cf357600080fd5b50565b600081359050612d0581612cdf565b92915050565b60008060408385031215612d2257612d21612c6d565b5b6000612d3085828601612cc0565b9250506020612d4185828601612cf6565b9150509250929050565b60008115159050919050565b612d6081612d4b565b82525050565b6000602082019050612d7b6000830184612d57565b92915050565b600060208284031215612d9757612d96612c6d565b5b6000612da584828501612cf6565b91505092915050565b612db781612cd5565b82525050565b612dc681612c97565b82525050565b600063ffffffff82169050919050565b612de581612dcc565b82525050565b600061010082019050612e01600083018b612dae565b612e0e602083018a612dbd565b8181036040830152612e208189612c08565b9050612e2f6060830188612dae565b612e3c6080830187612d57565b612e4960a0830186612ddc565b612e5660c0830185612ddc565b612e6360e0830184612dae565b9998505050505050505050565b6000602082019050612e856000830184612dae565b92915050565b612e9481612cd5565b82525050565b612ea381612c97565b82525050565b600082825260208201905092915050565b6000612ec582612bb1565b612ecf8185612ea9565b9350612edf818560208601612bcd565b612ee881612bf7565b840191505092915050565b612efc81612d4b565b82525050565b612f0b81612dcc565b82525050565b600061010083016000830151612f2a6000860182612e8b565b506020830151612f3d6020860182612e9a565b5060408301518482036040860152612f558282612eba565b9150506060830151612f6a6060860182612e8b565b506080830151612f7d6080860182612ef3565b5060a0830151612f9060a0860182612f02565b5060c0830151612fa360c0860182612f02565b5060e0830151612fb660e0860182612e8b565b508091505092915050565b60006020820190508181036000830152612fdb8184612f11565b905092915050565b600080600060608486031215612ffc57612ffb612c6d565b5b600061300a86828701612cc0565b935050602061301b86828701612cc0565b925050604061302c86828701612cf6565b9150509250925092565b6000806040838503121561304d5761304c612c6d565b5b600061305b85828601612cf6565b925050602061306c85828601612cc0565b9150509250929050565b600060ff82169050919050565b61308c81613076565b82525050565b60006020820190506130a76000830184613083565b92915050565b600080fd5b600080fd5b7f4e487b7100000000000000000000000000000000000000000000000000000000600052604160045260246000fd5b6130ef82612bf7565b810181811067ffffffffffffffff8211171561310e5761310d6130b7565b5b80604052505050565b6000613121612c63565b905061312d82826130e6565b919050565b600067ffffffffffffffff82111561314d5761314c6130b7565b5b61315682612bf7565b9050602081019050919050565b82818337600083830152505050565b600061318561318084613132565b613117565b9050828152602081018484840111156131a1576131a06130b2565b5b6131ac848285613163565b509392505050565b600082601f8301126131c9576131c86130ad565b5b81356131d9848260208601613172565b91505092915050565b600080604083850312156131f9576131f8612c6d565b5b600083013567ffffffffffffffff81111561321757613216612c72565b5b613223858286016131b4565b925050602061323485828601612cf6565b9150509250929050565b60006020828403121561325457613253612c6d565b5b600061326284828501612cc0565b91505092915050565b6000806040838503121561328257613281612c6d565b5b600061329085828601612cc0565b92505060206132a185828601612cc0565b9150509250929050565b60006020820190506132c06000830184612dbd565b92915050565b7f4e487b7100000000000000000000000000000000000000000000000000000000600052602260045260246000fd5b6000600282049050600182168061330d57607f821691505b6020821081036133205761331f6132c6565b5b50919050565b7f4e6f742065786973747300000000000000000000000000000000000000000000600082015250565b600061335c600a83612bbc565b915061336782613326565b602082019050919050565b6000602082019050818103600083015261338b8161334f565b9050919050565b7f7061796d656e7420697320696e73756666696369656e74000000000000000000600082015250565b60006133c8601783612bbc565b91506133d382613392565b602082019050919050565b600060208201905081810360008301526133f7816133bb565b9050919050565b600081905092915050565b50565b60006134196000836133fe565b915061342482613409565b600082019050919050565b600061343a8261340c565b9150819050919050565b7f5061796d656e74206661696c6564000000000000000000000000000000000000600082015250565b600061347a600e83612bbc565b915061348582613444565b602082019050919050565b600060208201905081810360008301526134a98161346d565b9050919050565b7f4e487b7100000000000000000000000000000000000000000000000000000000600052601160045260246000fd5b60006134ea82612cd5565b91506134f583612cd5565b925082820390508181111561350d5761350c6134b0565b5b92915050565b600061351e82612cd5565b915061352983612cd5565b9250828201905080821115613541576135406134b0565b5b92915050565b600060608201905061355c6000830186612dae565b6135696020830185612dae565b6135766040830184612dae565b949350505050565b7f4e756d626572206f662061647320657863656564656400000000000000000000600082015250565b60006135b4601683612bbc565b91506135bf8261357e565b602082019050919050565b600060208201905081810360008301526135e3816135a7565b9050919050565b60008190508160005260206000209050919050565b60006020601f8301049050919050565b600082821b905092915050565b60006008830261364c7fffffffffffffffffffffffffffffffffffffffffffffffffffffffffffffffff8261360f565b613656868361360f565b95508019841693508086168417925050509392505050565b6000819050919050565b600061369361368e61368984612cd5565b61366e565b612cd5565b9050919050565b6000819050919050565b6136ad83613678565b6136c16136b98261369a565b84845461361c565b825550505050565b600090565b6136d66136c9565b6136e18184846136a4565b505050565b5b81811015613705576136fa6000826136ce565b6001810190506136e7565b5050565b601f82111561374a5761371b816135ea565b613724846135ff565b81016020851015613733578190505b61374761373f856135ff565b8301826136e6565b50505b505050565b600082821c905092915050565b600061376d6000198460080261374f565b1980831691505092915050565b6000613786838361375c565b9150826002028217905092915050565b61379f82612bb1565b67ffffffffffffffff8111156137b8576137b76130b7565b5b6137c282546132f5565b6137cd828285613709565b600060209050601f83116001811461380057600084156137ee578287015190505b6137f8858261377a565b865550613860565b601f19841661380e866135ea565b60005b8281101561383657848901518255600182019150602085019450602081019050613811565b86831015613853578489015161384f601f89168261375c565b8355505b6001600288020188555050505b505050505050565b600081549050613877816132f5565b9050919050565b81810361388c575050613964565b61389582613868565b67ffffffffffffffff8111156138ae576138ad6130b7565b5b6138b882546132f5565b6138c3828285613709565b6000601f8311600181146138f257600084156138e0578287015490505b6138ea858261377a565b86555061395d565b601f198416613900876135ea565b965061390b866135ea565b60005b828110156139335784890154825560018201915060018501945060208101905061390e565b86831015613950578489015461394c601f89168261375c565b8355505b6001600288020188555050505b5050505050505b565b6000819050919050565b600061398b61398661398184613966565b61366e565b612cd5565b9050919050565b61399b81613970565b82525050565b60006040820190506139b66000830185612dae565b6139c36020830184613992565b9392505050565b7f53686f756c64206f72646572206265666f726500000000000000000000000000600082015250565b6000613a00601383612bbc565b9150613a0b826139ca565b602082019050919050565b60006020820190508181036000830152613a2f816139f3565b9050919050565b7f4576616c756174696f6e2070726f6365737320646f6e65000000000000000000600082015250565b6000613a6c601783612bbc565b9150613a7782613a36565b602082019050919050565b60006020820190508181036000830152613a9b81613a5f565b9050919050565b7f596f75206469736c696b6564206974206265666f726500000000000000000000600082015250565b6000613ad8601683612bbc565b9150613ae382613aa2565b602082019050919050565b60006020820190508181036000830152613b0781613acb565b9050919050565b6000613b1982612dcc565b9150613b2483612dcc565b9250828201905063ffffffff811115613b4057613b3f6134b0565b5b92915050565b6000602082019050613b5b6000830184612ddc565b92915050565b7f45524332303a2064656372656173656420616c6c6f77616e63652062656c6f7760008201527f207a65726f000000000000000000000000000000000000000000000000000000602082015250565b6000613bbd602583612bbc565b9150613bc882613b61565b604082019050919050565b60006020820190508181036000830152613bec81613bb0565b9050919050565b7f596f7520617265206e6f74206f776e6572000000000000000000000000000000600082015250565b6000613c29601183612bbc565b9150613c3482613bf3565b602082019050919050565b60006020820190508181036000830152613c5881613c1c565b9050919050565b7f536f6c64206974656d2063616e742062652064656c6574656400000000000000600082015250565b6000613c95601983612bbc565b9150613ca082613c5f565b602082019050919050565b60006020820190508181036000830152613cc481613c88565b9050919050565b7f596f75206c696b6564206974206265666f726500000000000000000000000000600082015250565b6000613d01601383612bbc565b9150613d0c82613ccb565b602082019050919050565b60006020820190508181036000830152613d3081613cf4565b9050919050565b7f45524332303a20617070726f76652066726f6d20746865207a65726f2061646460008201527f7265737300000000000000000000000000000000000000000000000000000000602082015250565b6000613d93602483612bbc565b9150613d9e82613d37565b604082019050919050565b60006020820190508181036000830152613dc281613d86565b9050919050565b7f45524332303a20617070726f766520746f20746865207a65726f20616464726560008201527f7373000000000000000000000000000000000000000000000000000000000000602082015250565b6000613e25602283612bbc565b9150613e3082613dc9565b604082019050919050565b60006020820190508181036000830152613e5481613e18565b9050919050565b7f45524332303a20696e73756666696369656e7420616c6c6f77616e6365000000600082015250565b6000613e91601d83612bbc565b9150613e9c82613e5b565b602082019050919050565b60006020820190508181036000830152613ec081613e84565b9050919050565b7f45524332303a207472616e736665722066726f6d20746865207a65726f20616460008201527f6472657373000000000000000000000000000000000000000000000000000000602082015250565b6000613f23602583612bbc565b9150613f2e82613ec7565b604082019050919050565b60006020820190508181036000830152613f5281613f16565b9050919050565b7f45524332303a207472616e7366657220746f20746865207a65726f206164647260008201527f6573730000000000000000000000000000000000000000000000000000000000602082015250565b6000613fb5602383612bbc565b9150613fc082613f59565b604082019050919050565b60006020820190508181036000830152613fe481613fa8565b9050919050565b7f45524332303a207472616e7366657220616d6f756e742065786365656473206260008201527f616c616e63650000000000000000000000000000000000000000000000000000602082015250565b6000614047602683612bbc565b915061405282613feb565b604082019050919050565b600060208201905081810360008301526140768161403a565b9050919050565b7f45524332303a206275726e2066726f6d20746865207a65726f2061646472657360008201527f7300000000000000000000000000000000000000000000000000000000000000602082015250565b60006140d9602183612bbc565b91506140e48261407d565b604082019050919050565b60006020820190508181036000830152614108816140cc565b9050919050565b7f45524332303a206275726e20616d6f756e7420657863656564732062616c616e60008201527f6365000000000000000000000000000000000000000000000000000000000000602082015250565b600061416b602283612bbc565b91506141768261410f565b604082019050919050565b6000602082019050818103600083015261419a8161415e565b905091905056fea264697066735822122017842a49e7ac9dca1c2f04bed3edb98dfdb0e90e169130a4a57ba0654454084564736f6c63430008110033",
  "linkReferences": {},
  "deployedLinkReferences": {}
}